{
  "contractName": "Debuggable",
  "abi": [
    {
      "anonymous": false,
      "inputs": [
        {
          "indexed": false,
          "name": "label",
          "type": "string"
        },
        {
          "indexed": false,
          "name": "value",
          "type": "uint256"
        }
      ],
      "name": "Logui",
      "type": "event"
    },
    {
      "anonymous": false,
      "inputs": [
        {
          "indexed": false,
          "name": "label",
          "type": "string"
        },
        {
          "indexed": false,
          "name": "value",
          "type": "int256"
        }
      ],
      "name": "Logi",
      "type": "event"
    },
    {
      "constant": true,
      "inputs": [],
      "name": "timeNow",
      "outputs": [
        {
          "name": "",
          "type": "uint256"
        }
      ],
      "payable": false,
      "stateMutability": "view",
      "type": "function"
    }
  ],
  "bytecode": "0x6080604052348015600f57600080fd5b5060a08061001e6000396000f300608060405260043610603f576000357c0100000000000000000000000000000000000000000000000000000000900463ffffffff168063d95660be146044575b600080fd5b348015604f57600080fd5b506056606c565b6040518082815260200191505060405180910390f35b6000429050905600a165627a7a72305820b0dec601249a5a142519defaaca35489337b4b865cd7758bff6885ca5fa5dbdd0029",
  "source": "pragma solidity ^0.4.21;\n\n/// @title aid development, should not be released into final version\ncontract Debuggable {\n  event Logui(string label, uint256 value);\n  event Logi(string label, int256 value);\n\n  function logui64(string s, uint64 x) internal {\n    emit Logui(s, uint256(x));\n  }\n\n  function logui256(string s, uint256 x) internal {\n    emit Logui(s, x);\n  }\n\n  function logi256(string s, int256 x) internal {\n    emit Logi(s, x);\n  }\n\n  function logb(string s, bool b) internal {\n    uint256 n = 0;\n    if (b) {\n      n = 1;\n    }\n    emit Logui(s, n);\n  }\n\n  function timeNow() public view returns (uint256) {\n    /* solium-disable-next-line */\n    return now;\n  }\n}\n",
  "sourcePath": "/home/david/workspace/shorting-react/contracts/lib/helpers/Debuggable.sol",
  "compiler": {
    "name": "solc",
    "version": "0.4.23+commit.124ca40d.Emscripten.clang"
  },
  "schemaVersion": "2.0.0",
  "updatedAt": "2018-05-20T17:21:30.780Z"
}