{
  "contractName": "Shorting",
  "abi": [
    {
      "constant": true,
      "inputs": [],
      "name": "tokenOracle",
      "outputs": [
        {
          "name": "",
          "type": "address"
        }
      ],
      "payable": false,
      "stateMutability": "view",
      "type": "function"
    },
    {
      "constant": false,
      "inputs": [],
      "name": "renounceOwnership",
      "outputs": [],
      "payable": false,
      "stateMutability": "nonpayable",
      "type": "function"
    },
    {
      "constant": true,
      "inputs": [
        {
          "name": "",
          "type": "bytes32"
        }
      ],
      "name": "shorts",
      "outputs": [
        {
          "name": "shorter",
          "type": "address"
        },
        {
          "name": "lender",
          "type": "address"
        },
        {
          "name": "lentToken",
          "type": "address"
        },
        {
          "name": "boughtToken",
          "type": "address"
        },
        {
          "name": "stakedToken",
          "type": "address"
        },
        {
          "name": "lentAmount",
          "type": "uint256"
        },
        {
          "name": "stakedAmount",
          "type": "uint256"
        },
        {
          "name": "boughtAmount",
          "type": "uint256"
        },
        {
          "name": "shortExpiration",
          "type": "uint256"
        }
      ],
      "payable": false,
      "stateMutability": "view",
      "type": "function"
    },
    {
      "constant": true,
      "inputs": [],
      "name": "owner",
      "outputs": [
        {
          "name": "",
          "type": "address"
        }
      ],
      "payable": false,
      "stateMutability": "view",
      "type": "function"
    },
    {
      "constant": true,
      "inputs": [
        {
          "name": "",
          "type": "bytes32"
        }
      ],
      "name": "closedShorts",
      "outputs": [
        {
          "name": "",
          "type": "bool"
        }
      ],
      "payable": false,
      "stateMutability": "view",
      "type": "function"
    },
    {
      "constant": true,
      "inputs": [],
      "name": "kyberNetwork",
      "outputs": [
        {
          "name": "",
          "type": "address"
        }
      ],
      "payable": false,
      "stateMutability": "view",
      "type": "function"
    },
    {
      "constant": false,
      "inputs": [
        {
          "name": "newOwner",
          "type": "address"
        }
      ],
      "name": "transferOwnership",
      "outputs": [],
      "payable": false,
      "stateMutability": "nonpayable",
      "type": "function"
    },
    {
      "inputs": [
        {
          "name": "_kyberNetworkAddress",
          "type": "address"
        },
        {
          "name": "_tokenOracleAddress",
          "type": "address"
        }
      ],
      "payable": false,
      "stateMutability": "nonpayable",
      "type": "constructor"
    },
    {
      "anonymous": false,
      "inputs": [
        {
          "indexed": false,
          "name": "lender",
          "type": "address"
        },
        {
          "indexed": false,
          "name": "lentAmount",
          "type": "uint256"
        },
        {
          "indexed": false,
          "name": "lentToken",
          "type": "address"
        },
        {
          "indexed": false,
          "name": "shorter",
          "type": "address"
        },
        {
          "indexed": false,
          "name": "stakedAmount",
          "type": "uint256"
        },
        {
          "indexed": false,
          "name": "stakedToken",
          "type": "address"
        },
        {
          "indexed": false,
          "name": "expiration",
          "type": "uint256"
        },
        {
          "indexed": false,
          "name": "hash",
          "type": "bytes32"
        }
      ],
      "name": "Filled",
      "type": "event"
    },
    {
      "anonymous": false,
      "inputs": [],
      "name": "Cancelled",
      "type": "event"
    },
    {
      "anonymous": false,
      "inputs": [],
      "name": "Traded",
      "type": "event"
    },
    {
      "anonymous": false,
      "inputs": [],
      "name": "Liquidated",
      "type": "event"
    },
    {
      "anonymous": false,
      "inputs": [
        {
          "indexed": false,
          "name": "code",
          "type": "uint256"
        },
        {
          "indexed": false,
          "name": "lender",
          "type": "address"
        },
        {
          "indexed": false,
          "name": "lentToken",
          "type": "address"
        },
        {
          "indexed": false,
          "name": "lentAmount",
          "type": "uint256"
        },
        {
          "indexed": false,
          "name": "shorter",
          "type": "address"
        },
        {
          "indexed": false,
          "name": "stakedToken",
          "type": "address"
        },
        {
          "indexed": false,
          "name": "stakedAmount",
          "type": "uint256"
        },
        {
          "indexed": false,
          "name": "orderExpiration",
          "type": "uint256"
        },
        {
          "indexed": false,
          "name": "shortExpiration",
          "type": "uint256"
        },
        {
          "indexed": false,
          "name": "nonce",
          "type": "uint256"
        }
      ],
      "name": "Failed",
      "type": "event"
    },
    {
      "anonymous": false,
      "inputs": [
        {
          "indexed": true,
          "name": "previousOwner",
          "type": "address"
        }
      ],
      "name": "OwnershipRenounced",
      "type": "event"
    },
    {
      "anonymous": false,
      "inputs": [
        {
          "indexed": true,
          "name": "previousOwner",
          "type": "address"
        },
        {
          "indexed": true,
          "name": "newOwner",
          "type": "address"
        }
      ],
      "name": "OwnershipTransferred",
      "type": "event"
    },
    {
      "constant": false,
      "inputs": [
        {
          "name": "lenderAddress",
          "type": "address"
        },
        {
          "name": "lentAmount",
          "type": "uint256"
        },
        {
          "name": "lentToken",
          "type": "address"
        },
        {
          "name": "shorterAddress",
          "type": "address"
        },
        {
          "name": "stakedAmount",
          "type": "uint256"
        },
        {
          "name": "stakedToken",
          "type": "address"
        },
        {
          "name": "orderExpiration",
          "type": "uint256"
        },
        {
          "name": "shortExpiration",
          "type": "uint256"
        },
        {
          "name": "nonce",
          "type": "uint256"
        },
        {
          "name": "v",
          "type": "uint8"
        },
        {
          "name": "r",
          "type": "bytes32"
        },
        {
          "name": "s",
          "type": "bytes32"
        }
      ],
      "name": "fill",
      "outputs": [],
      "payable": true,
      "stateMutability": "payable",
      "type": "function"
    },
    {
      "constant": false,
      "inputs": [
        {
          "name": "dest",
          "type": "address"
        },
        {
          "name": "orderHash",
          "type": "bytes32"
        }
      ],
      "name": "purchase",
      "outputs": [],
      "payable": false,
      "stateMutability": "nonpayable",
      "type": "function"
    },
    {
      "constant": false,
      "inputs": [
        {
          "name": "orderHash",
          "type": "bytes32"
        }
      ],
      "name": "closePosition",
      "outputs": [],
      "payable": false,
      "stateMutability": "nonpayable",
      "type": "function"
    }
  ],
  "bytecode": "0x608060405230600160006101000a81548173ffffffffffffffffffffffffffffffffffffffff021916908373ffffffffffffffffffffffffffffffffffffffff16021790555034801561005157600080fd5b506040516040806128518339810180604052810190808051906020019092919080519060200190929190505050336000806101000a81548173ffffffffffffffffffffffffffffffffffffffff021916908373ffffffffffffffffffffffffffffffffffffffff16021790555081600260006101000a81548173ffffffffffffffffffffffffffffffffffffffff021916908373ffffffffffffffffffffffffffffffffffffffff16021790555080600360006101000a81548173ffffffffffffffffffffffffffffffffffffffff021916908373ffffffffffffffffffffffffffffffffffffffff16021790555033600460006101000a81548173ffffffffffffffffffffffffffffffffffffffff021916908373ffffffffffffffffffffffffffffffffffffffff16021790555050506126bf806101926000396000f3006080604052600436106100a4576000357c0100000000000000000000000000000000000000000000000000000000900463ffffffff1680631d105d3c146100a957806359f94a7a146100fa5780636c5ec25c146101eb578063715018a61461024257806384870545146102595780638da5cb5b146103b2578063b4e4392714610409578063b78b842d14610452578063e54a2ad5146104a9578063f2fde38b146104da575b600080fd5b3480156100b557600080fd5b506100f8600480360381019080803573ffffffffffffffffffffffffffffffffffffffff169060200190929190803560001916906020019092919050505061051d565b005b6101e9600480360381019080803573ffffffffffffffffffffffffffffffffffffffff16906020019092919080359060200190929190803573ffffffffffffffffffffffffffffffffffffffff169060200190929190803573ffffffffffffffffffffffffffffffffffffffff16906020019092919080359060200190929190803573ffffffffffffffffffffffffffffffffffffffff169060200190929190803590602001909291908035906020019092919080359060200190929190803560ff16906020019092919080356000191690602001909291908035600019169060200190929190505050610999565b005b3480156101f757600080fd5b50610200610eca565b604051808273ffffffffffffffffffffffffffffffffffffffff1673ffffffffffffffffffffffffffffffffffffffff16815260200191505060405180910390f35b34801561024e57600080fd5b50610257610ef0565b005b34801561026557600080fd5b506102886004803603810190808035600019169060200190929190505050610ff2565b604051808a73ffffffffffffffffffffffffffffffffffffffff1673ffffffffffffffffffffffffffffffffffffffff1681526020018973ffffffffffffffffffffffffffffffffffffffff1673ffffffffffffffffffffffffffffffffffffffff1681526020018873ffffffffffffffffffffffffffffffffffffffff1673ffffffffffffffffffffffffffffffffffffffff1681526020018773ffffffffffffffffffffffffffffffffffffffff1673ffffffffffffffffffffffffffffffffffffffff1681526020018673ffffffffffffffffffffffffffffffffffffffff1673ffffffffffffffffffffffffffffffffffffffff168152602001858152602001848152602001838152602001828152602001995050505050505050505060405180910390f35b3480156103be57600080fd5b506103c76110e0565b604051808273ffffffffffffffffffffffffffffffffffffffff1673ffffffffffffffffffffffffffffffffffffffff16815260200191505060405180910390f35b34801561041557600080fd5b506104386004803603810190808035600019169060200190929190505050611105565b604051808215151515815260200191505060405180910390f35b34801561045e57600080fd5b50610467611125565b604051808273ffffffffffffffffffffffffffffffffffffffff1673ffffffffffffffffffffffffffffffffffffffff16815260200191505060405180910390f35b3480156104b557600080fd5b506104d8600480360381019080803560001916906020019092919050505061114b565b005b3480156104e657600080fd5b5061051b600480360381019080803573ffffffffffffffffffffffffffffffffffffffff169060200190929190505050611366565b005b600080600060066000856000191660001916815260200190815260200160002060000160009054906101000a900473ffffffffffffffffffffffffffffffffffffffff1673ffffffffffffffffffffffffffffffffffffffff163373ffffffffffffffffffffffffffffffffffffffff1614151561059a57600080fd5b6000600660008660001916600019168152602001908152602001600020600701541415156105c757600080fd5b60066000856000191660001916815260200190815260200160002060020160009054906101000a900473ffffffffffffffffffffffffffffffffffffffff1692506006600085600019166000191681526020019081526020016000206005015491508273ffffffffffffffffffffffffffffffffffffffff1663095ea7b3600260009054906101000a900473ffffffffffffffffffffffffffffffffffffffff16846040518363ffffffff167c0100000000000000000000000000000000000000000000000000000000028152600401808373ffffffffffffffffffffffffffffffffffffffff1673ffffffffffffffffffffffffffffffffffffffff16815260200182815260200192505050602060405180830381600087803b1580156106ee57600080fd5b505af1158015610702573d6000803e3d6000fd5b505050506040513d602081101561071857600080fd5b810190808051906020019092919050505050600260009054906101000a900473ffffffffffffffffffffffffffffffffffffffff1673ffffffffffffffffffffffffffffffffffffffff1663cb3c28c7848488600160009054906101000a900473ffffffffffffffffffffffffffffffffffffffff1660008060006040518863ffffffff167c0100000000000000000000000000000000000000000000000000000000028152600401808873ffffffffffffffffffffffffffffffffffffffff1673ffffffffffffffffffffffffffffffffffffffff1681526020018781526020018673ffffffffffffffffffffffffffffffffffffffff1673ffffffffffffffffffffffffffffffffffffffff1681526020018573ffffffffffffffffffffffffffffffffffffffff1673ffffffffffffffffffffffffffffffffffffffff1681526020018481526020018381526020018273ffffffffffffffffffffffffffffffffffffffff168152602001975050505050505050602060405180830381600087803b1580156108a957600080fd5b505af11580156108bd573d6000803e3d6000fd5b505050506040513d60208110156108d357600080fd5b810190808051906020019092919050505090508460066000866000191660001916815260200190815260200160002060030160006101000a81548173ffffffffffffffffffffffffffffffffffffffff021916908373ffffffffffffffffffffffffffffffffffffffff16021790555080600660008660001916600019168152602001908152602001600020600701819055507fa7f1e6e27a34f2593a9e49a64a52126d413c15004667c45709e4376b6632ca8c60405160405180910390a15050505050565b600086421115610ad8577f625e658401d85d99355ee961db4d5dc10cf9211afcf88ddde577aa31483324a160018e8d8f8e8d8f8e8e8e604051808b81526020018a73ffffffffffffffffffffffffffffffffffffffff1673ffffffffffffffffffffffffffffffffffffffff1681526020018973ffffffffffffffffffffffffffffffffffffffff1673ffffffffffffffffffffffffffffffffffffffff1681526020018881526020018773ffffffffffffffffffffffffffffffffffffffff1673ffffffffffffffffffffffffffffffffffffffff1681526020018673ffffffffffffffffffffffffffffffffffffffff1673ffffffffffffffffffffffffffffffffffffffff1681526020018581526020018481526020018381526020018281526020019a505050505050505050505060405180910390a1610ebb565b610aec8d8d8d8d8d8d8d8d8d8d8d8d6114bb565b9050610afc8d8d8d8d8d8d611783565b1515610b0457fe5b610120604051908101604052808b73ffffffffffffffffffffffffffffffffffffffff1681526020018e73ffffffffffffffffffffffffffffffffffffffff1681526020018c73ffffffffffffffffffffffffffffffffffffffff168152602001600073ffffffffffffffffffffffffffffffffffffffff1681526020018973ffffffffffffffffffffffffffffffffffffffff1681526020018d81526020018a8152602001600081526020018781525060066000836000191660001916815260200190815260200160002060008201518160000160006101000a81548173ffffffffffffffffffffffffffffffffffffffff021916908373ffffffffffffffffffffffffffffffffffffffff16021790555060208201518160010160006101000a81548173ffffffffffffffffffffffffffffffffffffffff021916908373ffffffffffffffffffffffffffffffffffffffff16021790555060408201518160020160006101000a81548173ffffffffffffffffffffffffffffffffffffffff021916908373ffffffffffffffffffffffffffffffffffffffff16021790555060608201518160030160006101000a81548173ffffffffffffffffffffffffffffffffffffffff021916908373ffffffffffffffffffffffffffffffffffffffff16021790555060808201518160040160006101000a81548173ffffffffffffffffffffffffffffffffffffffff021916908373ffffffffffffffffffffffffffffffffffffffff16021790555060a0820151816005015560c0820151816006015560e082015181600701556101008201518160080155905050600060056000836000191660001916815260200190815260200160002060006101000a81548160ff0219169083151502179055507f1efd6a456db3934dfbe745c8702718ba07452a887bc21f24a87e455a3f7a054e8d8d8d8d8d8d8c88604051808973ffffffffffffffffffffffffffffffffffffffff1673ffffffffffffffffffffffffffffffffffffffff1681526020018881526020018773ffffffffffffffffffffffffffffffffffffffff1673ffffffffffffffffffffffffffffffffffffffff1681526020018673ffffffffffffffffffffffffffffffffffffffff1673ffffffffffffffffffffffffffffffffffffffff1681526020018581526020018473ffffffffffffffffffffffffffffffffffffffff1673ffffffffffffffffffffffffffffffffffffffff16815260200183815260200182600019166000191681526020019850505050505050505060405180910390a15b50505050505050505050505050565b600360009054906101000a900473ffffffffffffffffffffffffffffffffffffffff1681565b6000809054906101000a900473ffffffffffffffffffffffffffffffffffffffff1673ffffffffffffffffffffffffffffffffffffffff163373ffffffffffffffffffffffffffffffffffffffff16141515610f4b57600080fd5b6000809054906101000a900473ffffffffffffffffffffffffffffffffffffffff1673ffffffffffffffffffffffffffffffffffffffff167ff8df31144d9c2f0f6b59d69b8b98abd5459d07f2742c4df920b25aae33c6482060405160405180910390a260008060006101000a81548173ffffffffffffffffffffffffffffffffffffffff021916908373ffffffffffffffffffffffffffffffffffffffff160217905550565b60066020528060005260406000206000915090508060000160009054906101000a900473ffffffffffffffffffffffffffffffffffffffff16908060010160009054906101000a900473ffffffffffffffffffffffffffffffffffffffff16908060020160009054906101000a900473ffffffffffffffffffffffffffffffffffffffff16908060030160009054906101000a900473ffffffffffffffffffffffffffffffffffffffff16908060040160009054906101000a900473ffffffffffffffffffffffffffffffffffffffff16908060050154908060060154908060070154908060080154905089565b6000809054906101000a900473ffffffffffffffffffffffffffffffffffffffff1681565b60056020528060005260406000206000915054906101000a900460ff1681565b600260009054906101000a900473ffffffffffffffffffffffffffffffffffffffff1681565b60056000826000191660001916815260200190815260200160002060009054906101000a900460ff1615151561118057600080fd5b60066000826000191660001916815260200190815260200160002060000160009054906101000a900473ffffffffffffffffffffffffffffffffffffffff1673ffffffffffffffffffffffffffffffffffffffff163373ffffffffffffffffffffffffffffffffffffffff161415611235576111fc81336117f5565b600160056000836000191660001916815260200190815260200160002060006101000a81548160ff021916908315150217905550611363565b60066000826000191660001916815260200190815260200160002060010160009054906101000a900473ffffffffffffffffffffffffffffffffffffffff1673ffffffffffffffffffffffffffffffffffffffff163373ffffffffffffffffffffffffffffffffffffffff1614156113625760066000826000191660001916815260200190815260200160002060080154421115611310576112d781336117f5565b600160056000836000191660001916815260200190815260200160002060006101000a81548160ff021916908315150217905550611363565b6113198161252a565b156113615761132881336117f5565b600160056000836000191660001916815260200190815260200160002060006101000a81548160ff021916908315150217905550611363565b5b5b50565b6000809054906101000a900473ffffffffffffffffffffffffffffffffffffffff1673ffffffffffffffffffffffffffffffffffffffff163373ffffffffffffffffffffffffffffffffffffffff161415156113c157600080fd5b600073ffffffffffffffffffffffffffffffffffffffff168173ffffffffffffffffffffffffffffffffffffffff16141515156113fd57600080fd5b8073ffffffffffffffffffffffffffffffffffffffff166000809054906101000a900473ffffffffffffffffffffffffffffffffffffffff1673ffffffffffffffffffffffffffffffffffffffff167f8be0079c531659141344cd1fd0a4f28419497f9722a3daafe3b4186f6b6457e060405160405180910390a3806000806101000a81548173ffffffffffffffffffffffffffffffffffffffff021916908373ffffffffffffffffffffffffffffffffffffffff16021790555050565b600080606060008f8f8f8f8f8f8f8f8f604051808a73ffffffffffffffffffffffffffffffffffffffff1673ffffffffffffffffffffffffffffffffffffffff166c010000000000000000000000000281526014018981526020018873ffffffffffffffffffffffffffffffffffffffff1673ffffffffffffffffffffffffffffffffffffffff166c010000000000000000000000000281526014018773ffffffffffffffffffffffffffffffffffffffff1673ffffffffffffffffffffffffffffffffffffffff166c010000000000000000000000000281526014018681526020018573ffffffffffffffffffffffffffffffffffffffff1673ffffffffffffffffffffffffffffffffffffffff166c010000000000000000000000000281526014018481526020018381526020018281526020019950505050505050505050604051809103902092506040805190810160405280601c81526020017f19457468657265756d205369676e6564204d6573736167653a0a333200000000815250915081836040518083805190602001908083835b6020831015156116755780518252602082019150602081019050602083039250611650565b6001836020036101000a038019825116818451168082178552505050505050905001826000191660001916815260200192505050604051809103902090508f73ffffffffffffffffffffffffffffffffffffffff16600182898989604051600081526020016040526040518085600019166000191681526020018460ff1660ff1681526020018360001916600019168152602001826000191660001916815260200194505050505060206040516020810390808403906000865af1158015611741573d6000803e3d6000fd5b5050506020604051035173ffffffffffffffffffffffffffffffffffffffff1614151561176d57600080fd5b8293505050509c9b505050505050505050505050565b60006117b387600160009054906101000a900473ffffffffffffffffffffffffffffffffffffffff168888612531565b80156117e957506117e884600160009054906101000a900473ffffffffffffffffffffffffffffffffffffffff168585612531565b5b90509695505050505050565b600080600080600080600080600080600080600660008f6000191660001916815260200190815260200160002060030160009054906101000a900473ffffffffffffffffffffffffffffffffffffffff169b50600660008f6000191660001916815260200190815260200160002060040160009054906101000a900473ffffffffffffffffffffffffffffffffffffffff169a50600660008f6000191660001916815260200190815260200160002060020160009054906101000a900473ffffffffffffffffffffffffffffffffffffffff169950600660008f60001916600019168152602001908152602001600020600701549850600660008f60001916600019168152602001908152602001600020600601549750600660008f60001916600019168152602001908152602001600020600501549650600660008f6000191660001916815260200190815260200160002060010160009054906101000a900473ffffffffffffffffffffffffffffffffffffffff169550600660008f6000191660001916815260200190815260200160002060000160009054906101000a900473ffffffffffffffffffffffffffffffffffffffff1694508b73ffffffffffffffffffffffffffffffffffffffff1663095ea7b3600260009054906101000a900473ffffffffffffffffffffffffffffffffffffffff168b6040518363ffffffff167c0100000000000000000000000000000000000000000000000000000000028152600401808373ffffffffffffffffffffffffffffffffffffffff1673ffffffffffffffffffffffffffffffffffffffff16815260200182815260200192505050602060405180830381600087803b158015611a7457600080fd5b505af1158015611a88573d6000803e3d6000fd5b505050506040513d6020811015611a9e57600080fd5b810190808051906020019092919050505050600260009054906101000a900473ffffffffffffffffffffffffffffffffffffffff1673ffffffffffffffffffffffffffffffffffffffff1663cb3c28c78d8b8d600160009054906101000a900473ffffffffffffffffffffffffffffffffffffffff1660008060006040518863ffffffff167c0100000000000000000000000000000000000000000000000000000000028152600401808873ffffffffffffffffffffffffffffffffffffffff1673ffffffffffffffffffffffffffffffffffffffff1681526020018781526020018673ffffffffffffffffffffffffffffffffffffffff1673ffffffffffffffffffffffffffffffffffffffff1681526020018573ffffffffffffffffffffffffffffffffffffffff1673ffffffffffffffffffffffffffffffffffffffff1681526020018481526020018381526020018273ffffffffffffffffffffffffffffffffffffffff168152602001975050505050505050602060405180830381600087803b158015611c2f57600080fd5b505af1158015611c43573d6000803e3d6000fd5b505050506040513d6020811015611c5957600080fd5b810190808051906020019092919050505093508684101515611f25578a73ffffffffffffffffffffffffffffffffffffffff1663a9059cbb868a6040518363ffffffff167c0100000000000000000000000000000000000000000000000000000000028152600401808373ffffffffffffffffffffffffffffffffffffffff1673ffffffffffffffffffffffffffffffffffffffff16815260200182815260200192505050602060405180830381600087803b158015611d1857600080fd5b505af1158015611d2c573d6000803e3d6000fd5b505050506040513d6020811015611d4257600080fd5b81019080805190602001909291905050505060008785031115611e41578973ffffffffffffffffffffffffffffffffffffffff1663a9059cbb868987036040518363ffffffff167c0100000000000000000000000000000000000000000000000000000000028152600401808373ffffffffffffffffffffffffffffffffffffffff1673ffffffffffffffffffffffffffffffffffffffff16815260200182815260200192505050602060405180830381600087803b158015611e0457600080fd5b505af1158015611e18573d6000803e3d6000fd5b505050506040513d6020811015611e2e57600080fd5b8101908080519060200190929190505050505b8973ffffffffffffffffffffffffffffffffffffffff1663a9059cbb87896040518363ffffffff167c0100000000000000000000000000000000000000000000000000000000028152600401808373ffffffffffffffffffffffffffffffffffffffff1673ffffffffffffffffffffffffffffffffffffffff16815260200182815260200192505050602060405180830381600087803b158015611ee457600080fd5b505af1158015611ef8573d6000803e3d6000fd5b505050506040513d6020811015611f0e57600080fd5b8101908080519060200190929190505050506124ed565b611f38848861265c90919063ffffffff16565b92508a73ffffffffffffffffffffffffffffffffffffffff1663095ea7b3600260009054906101000a900473ffffffffffffffffffffffffffffffffffffffff168a6040518363ffffffff167c0100000000000000000000000000000000000000000000000000000000028152600401808373ffffffffffffffffffffffffffffffffffffffff1673ffffffffffffffffffffffffffffffffffffffff16815260200182815260200192505050602060405180830381600087803b158015611fff57600080fd5b505af1158015612013573d6000803e3d6000fd5b505050506040513d602081101561202957600080fd5b810190808051906020019092919050505050600260009054906101000a900473ffffffffffffffffffffffffffffffffffffffff1673ffffffffffffffffffffffffffffffffffffffff1663cb3c28c78c8a8d600160009054906101000a900473ffffffffffffffffffffffffffffffffffffffff1660008060006040518863ffffffff167c0100000000000000000000000000000000000000000000000000000000028152600401808873ffffffffffffffffffffffffffffffffffffffff1673ffffffffffffffffffffffffffffffffffffffff1681526020018781526020018673ffffffffffffffffffffffffffffffffffffffff1673ffffffffffffffffffffffffffffffffffffffff1681526020018573ffffffffffffffffffffffffffffffffffffffff1673ffffffffffffffffffffffffffffffffffffffff1681526020018481526020018381526020018273ffffffffffffffffffffffffffffffffffffffff168152602001975050505050505050602060405180830381600087803b1580156121ba57600080fd5b505af11580156121ce573d6000803e3d6000fd5b505050506040513d60208110156121e457600080fd5b810190808051906020019092919050505091508661220b858461267590919063ffffffff16565b1015612307578973ffffffffffffffffffffffffffffffffffffffff1663a9059cbb87612241878661267590919063ffffffff16565b6040518363ffffffff167c0100000000000000000000000000000000000000000000000000000000028152600401808373ffffffffffffffffffffffffffffffffffffffff1673ffffffffffffffffffffffffffffffffffffffff16815260200182815260200192505050602060405180830381600087803b1580156122c657600080fd5b505af11580156122da573d6000803e3d6000fd5b505050506040513d60208110156122f057600080fd5b81019080805190602001909291905050505061251a565b61232c8761231e868561267590919063ffffffff16565b61265c90919063ffffffff16565b90508973ffffffffffffffffffffffffffffffffffffffff1663a9059cbb86836040518363ffffffff167c0100000000000000000000000000000000000000000000000000000000028152600401808373ffffffffffffffffffffffffffffffffffffffff1673ffffffffffffffffffffffffffffffffffffffff16815260200182815260200192505050602060405180830381600087803b1580156123d157600080fd5b505af11580156123e5573d6000803e3d6000fd5b505050506040513d60208110156123fb57600080fd5b8101908080519060200190929190505050508973ffffffffffffffffffffffffffffffffffffffff1663a9059cbb87896040518363ffffffff167c0100000000000000000000000000000000000000000000000000000000028152600401808373ffffffffffffffffffffffffffffffffffffffff1673ffffffffffffffffffffffffffffffffffffffff16815260200182815260200192505050602060405180830381600087803b1580156124b057600080fd5b505af11580156124c4573d6000803e3d6000fd5b505050506040513d60208110156124da57600080fd5b8101908080519060200190929190505050505b7f1ca61d77c5004794e60ba2f0231bc2954f00134d9524266c00e042857db9aeb060405160405180910390a15b5050505050505050505050505050565b6000919050565b60008173ffffffffffffffffffffffffffffffffffffffff166323b872dd8686866040518463ffffffff167c0100000000000000000000000000000000000000000000000000000000028152600401808473ffffffffffffffffffffffffffffffffffffffff1673ffffffffffffffffffffffffffffffffffffffff1681526020018373ffffffffffffffffffffffffffffffffffffffff1673ffffffffffffffffffffffffffffffffffffffff1681526020018281526020019350505050602060405180830381600087803b15801561260a57600080fd5b505af115801561261e573d6000803e3d6000fd5b505050506040513d602081101561263457600080fd5b8101908080519060200190929190505050151561265057600080fd5b60019050949350505050565b600082821115151561266a57fe5b818303905092915050565b600080828401905083811015151561268957fe5b80915050929150505600a165627a7a723058207b73f33ca064aa57085d5cd29a26df0c744fcccbce4675b08f7cea9ccb77b4a80029",
  "source": "pragma solidity ^0.4.21;\nimport {StandardToken as ERC20} from \"./lib/ERC20/StandardToken.sol\";\nimport \"./lib/kyber/KyberNetworkInterface.sol\";\nimport \"./TokenOracleInterface.sol\";\nimport \"./lib/helpers/Ownable.sol\";\nimport \"./lib/helpers/SafeMath.sol\";\n\n/*\n* assumes shorter and lender have approved this contract to access their balances\n* maybe instead the lender will have to deposit directly to this contract with\n* the lending conditions, will figure that out later  \n*/\ncontract Shorting is Ownable {\n  using SafeMath for uint256;\n  \n  address private thisAddress = address(this);\n\n  KyberNetworkInterface public kyberNetwork;\n  TokenOracleInterface public tokenOracle;\n  // address to send profits to\n  address private ownersAddress;\n  \n  // struct representing a short between lender and shorter\n  struct Short {\n    address shorter;\n    address lender;\n    address lentToken;\n    address boughtToken;\n    address stakedToken;\n    uint256 lentAmount;\n    uint256 stakedAmount;\n    uint256 boughtAmount;\n    uint256 shortExpiration;\n  }\n  \n  // mapping of order hash to bool (true = short position was closed)\n  mapping (bytes32 => bool) public closedShorts;\n  // mapping of order hash to Short struct\n  mapping (bytes32 => Short) public shorts;\n  \n  \n  \n  // Events that are emitted in certain scenarios (TODO)\n  event Filled(address lender, uint256 lentAmount, address lentToken, address shorter, uint256 stakedAmount, address stakedToken, uint256 expiration, bytes32 hash);\n  event Cancelled();\n  event Traded();\n  event Liquidated();\n  \n  /* Event emitted when something fails\n  *  Error codes:\n  *  1-> 'The order has expired'\n  *  2-> \n  *\n  *\n  *\n  *\n  */\n  event Failed(uint code, address lender, address lentToken, uint256 lentAmount, \n              address shorter, address stakedToken, uint256 stakedAmount,\n              uint256 orderExpiration, uint256 shortExpiration, uint256 nonce);\n  \n  function Shorting(address _kyberNetworkAddress, address _tokenOracleAddress) public {\n    kyberNetwork = KyberNetworkInterface(_kyberNetworkAddress);\n    tokenOracle = TokenOracleInterface(_tokenOracleAddress);\n    ownersAddress = msg.sender;\n  }\n  \n  /*\n  * fills an order and creates a short position  \n  */\n  function fill(address lenderAddress, uint256 lentAmount, address lentToken,\n                address shorterAddress, uint256 stakedAmount, address stakedToken,\n                uint256 orderExpiration, uint256 shortExpiration, uint256 nonce,\n                uint8 v, bytes32 r, bytes32 s) public payable {\n                  \n    // checking that the order hasnt expired\n    if (now > orderExpiration) {\n      emit Failed(1, lenderAddress, lentToken, lentAmount, shorterAddress, stakedToken, stakedAmount, orderExpiration, shortExpiration, nonce);\n      return;\n    }\n    \n    // create hash of the order to store it and validate the order\n    bytes32 hashV = validate(lenderAddress, lentAmount, lentToken, shorterAddress,\n                            stakedAmount, stakedToken, orderExpiration, shortExpiration,\n                            nonce, v, r, s);\n    \n    // assert that all the required tokens were transferred to this contract\n    assert(acquire(lenderAddress, lentAmount, lentToken, shorterAddress, stakedAmount, stakedToken));\n    \n    // creating key for short via the hash of the order in shorts mapping\n    shorts[hashV] = Short(shorterAddress, lenderAddress, lentToken, 0, stakedToken,\n                         lentAmount, stakedAmount, 0, shortExpiration);\n    closedShorts[hashV] = false;\n                         \n    emit Filled(lenderAddress, lentAmount, lentToken, shorterAddress, stakedAmount, stakedToken, shortExpiration, hashV);\n    \n  }\n  \n  function purchase(ERC20 dest, bytes32 orderHash) public {\n    // only the shorter can trade the borrowed tokens\n    require(msg.sender == shorts[orderHash].shorter);\n    \n    // require that the shorter hasn't bought any tokens yet\n    require(shorts[orderHash].boughtAmount == 0);\n    \n    ERC20 src = ERC20(shorts[orderHash].lentToken);\n    uint srcAmount = shorts[orderHash].lentAmount;\n    \n    // approve the trade and do it\n    src.approve(kyberNetwork, srcAmount);\n    \n    uint256 receivedAmount = kyberNetwork.trade(src, srcAmount, dest, thisAddress, 0, 0, 0);\n    shorts[orderHash].boughtToken = dest;\n    shorts[orderHash].boughtAmount = receivedAmount;\n    emit Traded();\n  }\n  \n  /*\n  * closes and liquidates the short position, can be called any time by the\n  * shorter, or if the staked amount can only cover < 50% of the losses caused\n  * by buying the boughtToken it can be called by the lender. Maybe will allow option\n  * for position to be closed by the public for a small reward if the staked amount\n  * can cover less than a certain percentage of losses\n  */\n  function closePosition(bytes32 orderHash) public {\n    \n    // require that the position hasn't already been closed\n    require(!closedShorts[orderHash]);\n    \n    // require that the short position exists (is this necessary?)\n    /* require(shorts[orderHash] != 0); */\n    \n    // allow shorter to close the position whenever they want\n    if (msg.sender == shorts[orderHash].shorter) {\n      liquidate(orderHash, msg.sender);\n      closedShorts[orderHash] = true;\n      return;\n    }\n    \n    // if the lender wants to close the position, check if the time expired\n    // or that the losses are too much\n    if (msg.sender == shorts[orderHash].lender) {\n      \n      // if the expiration has passed, liquidate the position\n      if (now > shorts[orderHash].shortExpiration) {\n          liquidate(orderHash, msg.sender);\n          closedShorts[orderHash] = true;\n          return;\n      }\n      \n      // if the lender can liquidate the position because of the shorters losses\n      if (lenderCanLiquidate(orderHash)) {\n        liquidate(orderHash, msg.sender);\n        closedShorts[orderHash] = true;\n        return;\n      }\n    }\n    \n    // TODO allow public to close position if certain threshold is reached\n        \n  }\n  \n  /*\n  * converts the boughtToken into lentToken, and if it's not enough to cover the\n  * lent amount also converts the stakedToken into lentToken (note that in the dy\n  * dx protocol stakedToken must also be boughtToken, perhaps we will implement\n  * that too), repays the lender (lending fee was payed before? or maybe interest\n  * will be payed now). Whatever is left over is returned to the shorter, and\n  * perhaps if the shorter makes a profit we take a cut\n  * note that the liquidator argument is needed for the Liquidated event\n  * so that we know who called it\n  */\n  function liquidate(bytes32 orderHash, address liquidator) private {\n    // Actual implementation of this function should take more factors into\n    // consideration, but for development purposes this will do. The main issue\n    // is that if the bought tokens price decreases relative to the lent token,\n    // even by just a little do we really have to convert all of the staked token \n    // into lent token in order to repay the lender? food for thought...\n    // making me reconsider a bit of the foundation of the contract\n    ERC20 boughtToken = ERC20(shorts[orderHash].boughtToken);\n    ERC20 stakedToken = ERC20(shorts[orderHash].stakedToken);\n    ERC20 lentToken = ERC20(shorts[orderHash].lentToken);\n    uint boughtAmount = shorts[orderHash].boughtAmount;\n    uint stakedAmount = shorts[orderHash].stakedAmount;\n    uint lentAmount = shorts[orderHash].lentAmount;\n    address lender = shorts[orderHash].lender;\n    address shorter = shorts[orderHash].shorter;\n    \n    boughtToken.approve(kyberNetwork, boughtAmount);\n    uint256 receivedAmount = kyberNetwork.trade(boughtToken, boughtAmount, lentToken, thisAddress, 0, 0, 0);\n    \n    // If the shorter made a profit\n    if (receivedAmount >= lentAmount) {\n      // Return all the staked tokens\n      stakedToken.transfer(shorter, uint256(stakedAmount));\n      // Send the converted lent token profit to the shorter\n      // threw an error since standardtoken cant send 0 coins\n      if (receivedAmount - lentAmount > 0) {\n        lentToken.transfer(shorter, receivedAmount - lentAmount);        \n      }\n      // Send the lent amount back to the lender (when does he take a fee?)\n      lentToken.transfer(lender, uint256(lentAmount));\n      \n    }\n    \n    else {\n      uint256 loss = uint256(lentAmount).sub(receivedAmount);\n      // Convert staked token into lent token to cover loss\n      stakedToken.approve(kyberNetwork, stakedAmount);\n      uint256 received = kyberNetwork.trade(stakedToken, stakedAmount, lentToken, thisAddress, 0, 0, 0);\n      if (received.add(receivedAmount) < lentAmount) {\n        // Fatal error, lender cannot lose money, what do we do here..?\n        lentToken.transfer(lender, received.add(receivedAmount));\n        return;\n      }\n      uint256 leftOver = received.add(receivedAmount).sub(lentAmount);\n      lentToken.transfer(shorter, leftOver);\n      lentToken.transfer(lender, lentAmount);\n    }\n    \n    emit Liquidated();\n    \n  }\n  \n  /*\n  * checks if the short position can be liquidated by the lender, must check\n  * the conversion rate of the boughtToken and stakedToken into lentToken\n  * and see if a certain threshold is passed  \n  */\n  function lenderCanLiquidate(bytes32 orderHash) private returns (bool) {\n    \n  }\n  \n  /*\n  * transfers the lent amount of ERC20 token and staked amount of ERC20 token\n  * to this contract  \n  */\n  function acquire(address lenderAddress, uint256 lentAmount, address lentToken,\n                   address shorterAddress, uint256 stakedAmount, address stakedToken)\n                   private returns (bool) {\n    \n    return (transfer(lenderAddress, thisAddress, lentAmount, lentToken) &&\n            transfer(shorterAddress, thisAddress, stakedAmount, stakedToken));\n                        \n  }\n  \n  /*  \n  * validates order arguments for fill function using lenders signature\n  */\n  function validate(address lenderAddress, uint256 lentAmount, address lentToken,\n                    address shorterAddress, uint256 stakedAmount, address stakedToken,\n                    uint256 orderExpiration, uint256 shortExpiration, uint256 nonce,\n                    uint8 v, bytes32 r, bytes32 s) private returns (bytes32) {\n    \n    // create hash from the order details, should add nonce at the end (TODO)\n    bytes32 hashV = keccak256(lenderAddress, lentAmount, lentToken, shorterAddress, stakedAmount, stakedToken, orderExpiration, shortExpiration, nonce);\n    \n    bytes memory prefix = \"\\x19Ethereum Signed Message:\\n32\";    \n    bytes32 prefixedHash = sha3(prefix, hashV);\n    require(ecrecover(prefixedHash, v, r, s) == lenderAddress);\n\n    return hashV;\n  }\n\n  /*  \n  * transfers ERC20 tokens and returns true upon success\n  */\n  function transfer(address from, address to, uint amount, address token) \n                    private returns (bool) {\n      \n      require(ERC20(token).transferFrom(from, to, amount));\n      return true;\n  }\n  \n}",
  "sourcePath": "/home/david/workspace/shorting-react/contracts/Shorting.sol",
  "compiler": {
    "name": "solc",
    "version": "0.4.23+commit.124ca40d.Emscripten.clang"
  },
  "schemaVersion": "2.0.0",
  "updatedAt": "2018-05-31T14:51:49.913Z"
}