{
  "contractName": "TokenOracle",
  "abi": [
    {
      "constant": false,
      "inputs": [],
      "name": "renounceOwnership",
      "outputs": [],
      "payable": false,
      "stateMutability": "nonpayable",
      "type": "function"
    },
    {
      "constant": true,
      "inputs": [],
      "name": "owner",
      "outputs": [
        {
          "name": "",
          "type": "address"
        }
      ],
      "payable": false,
      "stateMutability": "view",
      "type": "function"
    },
    {
      "constant": true,
      "inputs": [
        {
          "name": "",
          "type": "address"
        }
      ],
      "name": "tokenExists",
      "outputs": [
        {
          "name": "",
          "type": "bool"
        }
      ],
      "payable": false,
      "stateMutability": "view",
      "type": "function"
    },
    {
      "constant": true,
      "inputs": [],
      "name": "baseToken",
      "outputs": [
        {
          "name": "",
          "type": "address"
        }
      ],
      "payable": false,
      "stateMutability": "view",
      "type": "function"
    },
    {
      "constant": true,
      "inputs": [
        {
          "name": "",
          "type": "address"
        }
      ],
      "name": "tokenValues",
      "outputs": [
        {
          "name": "",
          "type": "uint256"
        }
      ],
      "payable": false,
      "stateMutability": "view",
      "type": "function"
    },
    {
      "constant": true,
      "inputs": [],
      "name": "timeNow",
      "outputs": [
        {
          "name": "",
          "type": "uint256"
        }
      ],
      "payable": false,
      "stateMutability": "view",
      "type": "function"
    },
    {
      "constant": false,
      "inputs": [
        {
          "name": "newOwner",
          "type": "address"
        }
      ],
      "name": "transferOwnership",
      "outputs": [],
      "payable": false,
      "stateMutability": "nonpayable",
      "type": "function"
    },
    {
      "inputs": [
        {
          "name": "_baseToken",
          "type": "address"
        }
      ],
      "payable": false,
      "stateMutability": "nonpayable",
      "type": "constructor"
    },
    {
      "anonymous": false,
      "inputs": [
        {
          "indexed": true,
          "name": "tokenAddress",
          "type": "address"
        },
        {
          "indexed": false,
          "name": "value",
          "type": "uint256"
        }
      ],
      "name": "RateSet",
      "type": "event"
    },
    {
      "anonymous": false,
      "inputs": [
        {
          "indexed": false,
          "name": "label",
          "type": "string"
        },
        {
          "indexed": false,
          "name": "value",
          "type": "uint256"
        }
      ],
      "name": "Logui",
      "type": "event"
    },
    {
      "anonymous": false,
      "inputs": [
        {
          "indexed": false,
          "name": "label",
          "type": "string"
        },
        {
          "indexed": false,
          "name": "value",
          "type": "int256"
        }
      ],
      "name": "Logi",
      "type": "event"
    },
    {
      "anonymous": false,
      "inputs": [
        {
          "indexed": true,
          "name": "previousOwner",
          "type": "address"
        }
      ],
      "name": "OwnershipRenounced",
      "type": "event"
    },
    {
      "anonymous": false,
      "inputs": [
        {
          "indexed": true,
          "name": "previousOwner",
          "type": "address"
        },
        {
          "indexed": true,
          "name": "newOwner",
          "type": "address"
        }
      ],
      "name": "OwnershipTransferred",
      "type": "event"
    },
    {
      "constant": true,
      "inputs": [
        {
          "name": "_from",
          "type": "address"
        },
        {
          "name": "_to",
          "type": "address"
        },
        {
          "name": "_amount",
          "type": "uint256"
        }
      ],
      "name": "convert",
      "outputs": [
        {
          "name": "",
          "type": "uint256"
        }
      ],
      "payable": false,
      "stateMutability": "view",
      "type": "function"
    },
    {
      "constant": false,
      "inputs": [
        {
          "name": "_token",
          "type": "address"
        },
        {
          "name": "_value",
          "type": "uint256"
        }
      ],
      "name": "setRate",
      "outputs": [],
      "payable": false,
      "stateMutability": "nonpayable",
      "type": "function"
    },
    {
      "constant": false,
      "inputs": [
        {
          "name": "_tokens",
          "type": "address[]"
        },
        {
          "name": "_values",
          "type": "uint256[]"
        }
      ],
      "name": "setMultipleRates",
      "outputs": [],
      "payable": false,
      "stateMutability": "nonpayable",
      "type": "function"
    },
    {
      "constant": true,
      "inputs": [],
      "name": "getAllTokenValues",
      "outputs": [
        {
          "name": "addresses",
          "type": "address[]"
        },
        {
          "name": "values",
          "type": "uint256[]"
        }
      ],
      "payable": false,
      "stateMutability": "view",
      "type": "function"
    }
  ],
  "bytecode": "0x6080604052601260015534801561001557600080fd5b5060405160208061100f83398101806040528101908080519060200190929190505050336000806101000a81548173ffffffffffffffffffffffffffffffffffffffff021916908373ffffffffffffffffffffffffffffffffffffffff16021790555080600560006101000a81548173ffffffffffffffffffffffffffffffffffffffff021916908373ffffffffffffffffffffffffffffffffffffffff160217905550600154600a0a600102600260008373ffffffffffffffffffffffffffffffffffffffff1673ffffffffffffffffffffffffffffffffffffffff1681526020019081526020016000208190555060038190806001815401808255809150509060018203906000526020600020016000909192909190916101000a81548173ffffffffffffffffffffffffffffffffffffffff021916908373ffffffffffffffffffffffffffffffffffffffff160217905550506001600460008373ffffffffffffffffffffffffffffffffffffffff1673ffffffffffffffffffffffffffffffffffffffff16815260200190815260200160002060006101000a81548160ff02191690831515021790555050610e3c806101d36000396000f3006080604052600436106100af576000357c0100000000000000000000000000000000000000000000000000000000900463ffffffff16806305ed9051146100b4578063111ee01a14610168578063248391ff146102115780632bdb709714610292578063715018a6146102df5780638da5cb5b146102f6578063b33f78ca1461034d578063c55dae63146103a8578063cf2b592f146103ff578063d95660be14610456578063f2fde38b14610481575b600080fd5b3480156100c057600080fd5b506100c96104c4565b604051808060200180602001838103835285818151815260200191508051906020019060200280838360005b838110156101105780820151818401526020810190506100f5565b50505050905001838103825284818151815260200191508051906020019060200280838360005b83811015610152578082015181840152602081019050610137565b5050505090500194505050505060405180910390f35b34801561017457600080fd5b5061020f6004803603810190808035906020019082018035906020019080806020026020016040519081016040528093929190818152602001838360200280828437820191505050505050919291929080359060200190820180359060200190808060200260200160405190810160405280939291908181526020018383602002808284378201915050505050509192919290505050610670565b005b34801561021d57600080fd5b5061027c600480360381019080803573ffffffffffffffffffffffffffffffffffffffff169060200190929190803573ffffffffffffffffffffffffffffffffffffffff16906020019092919080359060200190929190505050610725565b6040518082815260200191505060405180910390f35b34801561029e57600080fd5b506102dd600480360381019080803573ffffffffffffffffffffffffffffffffffffffff16906020019092919080359060200190929190505050610872565b005b3480156102eb57600080fd5b506102f46108db565b005b34801561030257600080fd5b5061030b6109dd565b604051808273ffffffffffffffffffffffffffffffffffffffff1673ffffffffffffffffffffffffffffffffffffffff16815260200191505060405180910390f35b34801561035957600080fd5b5061038e600480360381019080803573ffffffffffffffffffffffffffffffffffffffff169060200190929190505050610a02565b604051808215151515815260200191505060405180910390f35b3480156103b457600080fd5b506103bd610a22565b604051808273ffffffffffffffffffffffffffffffffffffffff1673ffffffffffffffffffffffffffffffffffffffff16815260200191505060405180910390f35b34801561040b57600080fd5b50610440600480360381019080803573ffffffffffffffffffffffffffffffffffffffff169060200190929190505050610a48565b6040518082815260200191505060405180910390f35b34801561046257600080fd5b5061046b610a60565b6040518082815260200191505060405180910390f35b34801561048d57600080fd5b506104c2600480360381019080803573ffffffffffffffffffffffffffffffffffffffff169060200190929190505050610a68565b005b60608060006003805490506040519080825280602002602001820160405280156104fd5781602001602082028038833980820191505090505b5092506003805490506040519080825280602002602001820160405280156105345781602001602082028038833980820191505090505b5091505b60038054905081101561066b5760038181548110151561055457fe5b9060005260206000200160009054906101000a900473ffffffffffffffffffffffffffffffffffffffff16838281518110151561058d57fe5b9060200190602002019073ffffffffffffffffffffffffffffffffffffffff16908173ffffffffffffffffffffffffffffffffffffffff1681525050600260006003838154811015156105dc57fe5b9060005260206000200160009054906101000a900473ffffffffffffffffffffffffffffffffffffffff1673ffffffffffffffffffffffffffffffffffffffff1673ffffffffffffffffffffffffffffffffffffffff16815260200190815260200160002054828281518110151561065057fe5b90602001906020020181815250508080600101915050610538565b509091565b60008060009054906101000a900473ffffffffffffffffffffffffffffffffffffffff1673ffffffffffffffffffffffffffffffffffffffff163373ffffffffffffffffffffffffffffffffffffffff161415156106cd57600080fd5b600090505b82518110156107205761071383828151811015156106ec57fe5b90602001906020020151838381518110151561070457fe5b90602001906020020151610bbd565b80806001019150506106d2565b505050565b600080600260008673ffffffffffffffffffffffffffffffffffffffff1673ffffffffffffffffffffffffffffffffffffffff168152602001908152602001600020541415610777576000905061086b565b6000821415610789576000905061086b565b8273ffffffffffffffffffffffffffffffffffffffff168473ffffffffffffffffffffffffffffffffffffffff1614156107c55781905061086b565b610868600260008673ffffffffffffffffffffffffffffffffffffffff1673ffffffffffffffffffffffffffffffffffffffff1681526020019081526020016000205461085a600260008773ffffffffffffffffffffffffffffffffffffffff1673ffffffffffffffffffffffffffffffffffffffff1681526020019081526020016000205485610dc290919063ffffffff16565b610df590919063ffffffff16565b90505b9392505050565b6000809054906101000a900473ffffffffffffffffffffffffffffffffffffffff1673ffffffffffffffffffffffffffffffffffffffff163373ffffffffffffffffffffffffffffffffffffffff161415156108cd57600080fd5b6108d78282610bbd565b5050565b6000809054906101000a900473ffffffffffffffffffffffffffffffffffffffff1673ffffffffffffffffffffffffffffffffffffffff163373ffffffffffffffffffffffffffffffffffffffff1614151561093657600080fd5b6000809054906101000a900473ffffffffffffffffffffffffffffffffffffffff1673ffffffffffffffffffffffffffffffffffffffff167ff8df31144d9c2f0f6b59d69b8b98abd5459d07f2742c4df920b25aae33c6482060405160405180910390a260008060006101000a81548173ffffffffffffffffffffffffffffffffffffffff021916908373ffffffffffffffffffffffffffffffffffffffff160217905550565b6000809054906101000a900473ffffffffffffffffffffffffffffffffffffffff1681565b60046020528060005260406000206000915054906101000a900460ff1681565b600560009054906101000a900473ffffffffffffffffffffffffffffffffffffffff1681565b60026020528060005260406000206000915090505481565b600042905090565b6000809054906101000a900473ffffffffffffffffffffffffffffffffffffffff1673ffffffffffffffffffffffffffffffffffffffff163373ffffffffffffffffffffffffffffffffffffffff16141515610ac357600080fd5b600073ffffffffffffffffffffffffffffffffffffffff168173ffffffffffffffffffffffffffffffffffffffff1614151515610aff57600080fd5b8073ffffffffffffffffffffffffffffffffffffffff166000809054906101000a900473ffffffffffffffffffffffffffffffffffffffff1673ffffffffffffffffffffffffffffffffffffffff167f8be0079c531659141344cd1fd0a4f28419497f9722a3daafe3b4186f6b6457e060405160405180910390a3806000806101000a81548173ffffffffffffffffffffffffffffffffffffffff021916908373ffffffffffffffffffffffffffffffffffffffff16021790555050565b600560009054906101000a900473ffffffffffffffffffffffffffffffffffffffff1673ffffffffffffffffffffffffffffffffffffffff168273ffffffffffffffffffffffffffffffffffffffff1614151515610c1a57600080fd5b80600260008473ffffffffffffffffffffffffffffffffffffffff1673ffffffffffffffffffffffffffffffffffffffff168152602001908152602001600020819055508173ffffffffffffffffffffffffffffffffffffffff167fd0052b410d0cb795a7f6c819df26e4fa449395ba08d12ff743ca0646827e797c826040518082815260200191505060405180910390a2600460008373ffffffffffffffffffffffffffffffffffffffff1673ffffffffffffffffffffffffffffffffffffffff16815260200190815260200160002060009054906101000a900460ff161515610dbe5760038290806001815401808255809150509060018203906000526020600020016000909192909190916101000a81548173ffffffffffffffffffffffffffffffffffffffff021916908373ffffffffffffffffffffffffffffffffffffffff160217905550506001600460008473ffffffffffffffffffffffffffffffffffffffff1673ffffffffffffffffffffffffffffffffffffffff16815260200190815260200160002060006101000a81548160ff0219169083151502179055505b5050565b60008082840290506000841480610de35750828482811515610de057fe5b04145b1515610deb57fe5b8091505092915050565b6000808284811515610e0357fe5b04905080915050929150505600a165627a7a7230582060a3f26b756a325e9b4af9833fd88e5ff4946111abed45eec588cc6678890dda0029",
  "source": "pragma solidity ^0.4.21;\n\nimport \"./TokenOracleInterface.sol\";\nimport \"./lib/helpers/Ownable.sol\";\nimport \"./lib/helpers/SafeMath.sol\";\nimport {StandardToken as ERC20} from \"./lib/ERC20/StandardToken.sol\";\n\n// TODO remove this afterwards\nimport \"./lib/helpers/Debuggable.sol\";\n\n// TODO add multiple admin functionality?\ncontract TokenOracle is TokenOracleInterface, Ownable, Debuggable {\n  using SafeMath for uint256;\n  \n  uint256 DECIMALS = 18;\n\n  event RateSet(address indexed tokenAddress, uint256 value);\n  \n  // mapping of token to value\n  // value is how much you get for 1 * (10^DECIMALS) `baseToken`\n  // e.g.\n  // if \"cot\" is the `baseToken`, then:\n  // \"bat => 1000 * 10^18\" means \"1 * (10^DECIMALS) cot == 1000 * 10^18\" bat\"\n  mapping (address => uint256) public tokenValues;\n\n  // we store all the tokens we have prices for too so that we can more easily return data to clients\n  address[] tokens;\n  // to help us avoid adding duplicate items to the tokens array\n  // TODO we could potentially use `tokenValues` for this too if we don't allow rate to be set to 0\n  mapping (address => bool) public tokenExists;\n\n  ERC20 public baseToken;\n\n  function TokenOracle(address _baseToken) public {\n    baseToken = ERC20(_baseToken);\n\n    // baseToken:baseToken is always 1:1 conversion\n    tokenValues[_baseToken] = 1 * (10 ** DECIMALS);\n\n    tokens.push(_baseToken);\n    tokenExists[_baseToken] = true;\n  }\n\n  // convert from amount of \"_from\" token to \"_to\" token\n  function convert(ERC20 _from, ERC20 _to, uint256 _amount) public view returns (uint256) {\n    // TODO not sure if we throw an error in this case or if we just return 0\n    // returning 0 probably makes more sense\n    // require(tokenValues[_from] != 0);\n    if (tokenValues[_from] == 0)\n      return 0;\n\n    if (_amount == 0)\n      return 0;\n\n    if (_from == _to)\n      return _amount;\n\n    return _amount.mul(tokenValues[_to]).div(tokenValues[_from]);\n  }\n\n  function _setRate(ERC20 _token, uint256 _value) internal {\n    require(address(_token) != address(baseToken));\n\n    tokenValues[_token] = _value;\n\n    emit RateSet(_token, _value);\n    \n    if (!tokenExists[_token]) {\n      tokens.push(_token);\n      tokenExists[_token] = true;\n    }\n  }\n\n  // TODO disallow setRate to 0?\n  function setRate(ERC20 _token, uint256 _value) public onlyOwner {\n    _setRate(_token, _value);\n  }\n\n  function setMultipleRates(ERC20[] _tokens, uint256[] _values) public onlyOwner {\n    for (uint256 i = 0; i < _tokens.length; i++) {\n      _setRate(_tokens[i], _values[i]);\n    }\n  }\n\n  function getAllTokenValues() external view returns(\n    address[] addresses,\n    uint256[] values\n  ) {\n    addresses = new address[](tokens.length);\n    values = new uint256[](tokens.length);\n\n    for (uint i; i < tokens.length; i++) {\n      addresses[i] = tokens[i];\n      values[i] = tokenValues[address(tokens[i])];\n    }\n  }\n}\n",
  "sourcePath": "/home/david/workspace/shorting-react/contracts/TokenOracle.sol",
  "compiler": {
    "name": "solc",
    "version": "0.4.23+commit.124ca40d.Emscripten.clang"
  },
  "schemaVersion": "2.0.0",
  "updatedAt": "2018-05-25T10:53:34.426Z"
}